:100000000C9434000C9451000C9451000C94510049
:100010000C943A020C9451000C9451000C94510031
:100020000C9451000C9451000C9451000C9451000C
:100030000C9451000C9451000C9411020C9451003A
:100040000C9451000C9451000C9451000C945100EC
:100050000C9451000C9451000C9451000C945100DC
:100060000C9451000C94510011241FBECFEFD8E026
:10007000DEBFCDBF11E0A0E0B1E0E4EAFBE002C0EA
:1000800005900D92AE31B107D9F721E0AEE1B1E0B4
:1000900001C01D92A636B207E1F70E9403050C9439
:1000A000D0050C9400009BB197789BB92BB138E038
:1000B000839FC0011124822B8BB908958AB1886770
:1000C0008AB9599808955A9A8AE08A95F1F700C03A
:1000D0005A980895FC0158988AB187788AB9599A34
:1000E0005AE05A9A6AE06A95F1F700C089B199B16D
:1000F000969596959695977090835A9895E09A95CF
:10010000F1F700005A9AAAE0AA95F1F700C049B1A8
:100110009081B0E19B9F90011124942F9695969524
:1001200096959F70292B20835A98AFE3B1E01197E1
:10013000F1F700C0000086FF04C0515091F681E045
:10014000089580E00895CF93C82F0E945E005898CC
:100150008C2F0E945300CF910C946300CF93C82F33
:1001600082958F700E94A3008AE08A95F1F700C003
:100170008C2F8F700E94A3008FE891E00197F1F718
:1001800000C00000CF9108958AB187608AB92FEF2F
:1001900080E792E0215080409040E1F700C00000ED
:1001A00082E00E94A30087EC90E00197F1F700C085
:1001B000000088E20E94AE0087EC90E00197F1F722
:1001C00000C000008CE00E94AE0087EC90E0019738
:1001D000F1F700C0000081E00E94AE008FE39FE1D4
:1001E0000197F1F700C0000086E00C94AE001F9369
:1001F000CF93DF931F92CDB7DEB7182FCE010196B4
:100200000E946A00811106C0812F80680E94AE00A2
:1002100082E001C083E00F90DF91CF911F9108959C
:100220001F93CF93DF931F92CDB7DEB7182FCE0168
:1002300001960E946A0081111AC0589A0E945E00BD
:10024000812F82958F700E9453000E9463008AE084
:100250008A95F1F700C0812F8F700E9453000E9491
:1002600063008FE891E00197F1F700C000000F9064
:10027000DF91CF911F9108951F93CF93DF931F922A
:10028000CDB7DEB7182FCE0101960E946A00898192
:10029000873688F480E3810F0E94100180EA0E9473
:1002A0001001898192E0980F99838552893118F461
:1002B00080E40E94F7000F90DF91CF911F91089585
:1002C0008F929F92AF92BF92EF92FF921F93CF9324
:1002D000DF93CDB7DEB72A970FB6F894DEBF0FBE17
:1002E000CDBF10E03AE0832E912CA12CB12CEE244E
:1002F000E394F12CEC0EFD1EE10EF11CA50194011E
:100300000E949405F70160831F5FB901CA0161155E
:1003100071058105910559F71150E1E0F0E0EC0F0E
:10032000FD1FE10FF11D8081805D0E941001111100
:10033000F3CF2A960FB6F894DEBF0FBECDBFDF9184
:10034000CF911F91FF90EF90BF90AF909F908F90B3
:100350000895CF93DF93EC018991882319F00E94CF
:100360001001FACFDF91CF910895EF92FF920F9392
:100370001F93CF93DF938B01FC01C181D28180E079
:100380000E94F7008CE091E00E94A90188E00E94A1
:10039000F700D7FF02C08DE201C08BE20E9410017E
:1003A000CE019F77CAE0D0E0BE010E9480057C01AB
:1003B00080E090E00E9460018EE20E941001B7018F
:1003C00080E090E00E9460018FED0E94100183E4C4
:1003D0000E941001F8010181128180E40E94F7005F
:1003E00084E191E00E94A90189E40E94F700C8011C
:1003F000BE010E948005EC0180E090E00E94600157
:100400008EE20E941001BE0180E090E00E94600137
:1004100085E2DF91CF911F910F91FF90EF900C94A7
:1004200010011F920F920FB60F9211242F938F93EA
:100430009F93AF93BF93EF93FF93F894EEE1F1E0B6
:10044000268187819085A185B285820F911DA11D8E
:10045000B11D87839087A187B2877894FF91EF9130
:10046000BF91AF919F918F912F910F900FBE0F90E1
:100470001F9018951F920F920FB60F9211242F9371
:100480003F934F935F936F937F938F939F93AF931C
:10049000BF93EF93FF936EE171E08CE291E00E94D5
:1004A0009204FF91EF91BF91AF919F918F917F91B6
:1004B0006F915F914F913F912F910F900FBE0F90D1
:1004C0001F901895CF92DF92EF92FF920F931F9398
:1004D000CF93DF93EC016230710561F484B58E7FB8
:1004E00084BD84B5826084BD85B5877F85BD02E00B
:1004F00010E002C003E010E0798368835D834C83E1
:100500002E8381E090E09C878B874130510559F024
:100510004230510579F430E4C32E32E4D32E3FE06B
:10052000E32EF12C0BC098EEC92E93E0D92EE12CCE
:10053000F12C04C0C12CD12C7601C394A22FB0E0C1
:1005400020E034E244EF50E00E94B605A701960196
:100550000E94940527BD81E090E09B838A83C801B7
:10056000DF91CF911F910F91FF90EF90DF90CF908F
:100570000895FC01828193818D7F892B89F0809180
:100580006E00826080936E0081E085BD16BC17828C
:1005900010861186128682E090E09383828308950C
:1005A00083E090E00895FC0182819381029778F0C6
:1005B00016BC14BC10926E0017821086118612862B
:1005C00081E090E09383828382E090E0089583E06D
:1005D00090E00895CF93DF93FC01228133812115B0
:1005E000310561F0EC012130310511F40E94B902AE
:1005F0008D858F5F8D8782E090E002C083E090E080
:10060000DF91CF910895FC018585882369F02281CF
:1006100033812230310541F481508587811107C033
:10062000CF010E94D30203C083E090E0089582E0EE
:1006300090E0089590E070E02BE030E0261B370B4F
:10064000220F331F8217930734F09B01225E3F4F26
:100650002817390774F49B01220F331F8217930761
:100660005CF0655B7F4F6817790734F081E090E0BC
:10067000089580E090E0089589E090E008959F92C9
:10068000AF92BF92CF92DF92EF92FF920F931F93A0
:10069000CF93DF93EC01962E7C0181E1E80EF11CF3
:1006A0005E01E1E2AE0EB11C42E0C42ED12C692DF8
:1006B000F70181917F010E941A038C01029748F48F
:1006C00088859985880F991F082B192B198708870A
:1006D0008601EA14FB0411F06801E9CF6E01F1E331
:1006E000CF0ED11C692DF50181915F010E941A0383
:1006F0007C01029748F48D819E81880F991FE82A1A
:10070000F92AFE82ED827801CA14DB0411F0870118
:10071000E9CF8E01075C1F4FC016D10681F0692D0D
:10072000F60181916F010E941A038230910528F42D
:100730009B85990F892B8B87C7017C01EDCFC70162
:10074000DF91CF911F910F91FF90EF90DF90CF90AD
:10075000BF90AF909F900895FC01608B2FEF87EAC8
:1007600091E6215080409040E1F700C0000047B181
:1007700081E090E09C01008802C0220F331F0A94A0
:10078000E2F7242B27B948B19C01008802C0220F50
:10079000331F0A94E2F7242B28B9ACE6B0E04C9161
:1007A0009C01008802C0220F331F0A94E2F7242B19
:1007B0002C93918380830895AF92BF92CF92DF9262
:1007C000EF92FF920F931F93CF93DF93FC01C081B1
:1007D000D181C330D10509F491C0C230D10509F0EF
:1007E00048C088B1408990E0042E02C09595879555
:1007F0000A94E2F780FD82C0E9018F819885A9857E
:10080000BA85C484D584E684F7848C199D09AE0921
:10081000BF0980359644A105B10508F46FC057B1F2
:1008200081E090E0BC0101C0660F4A95EAF7462FCF
:100830004095452347B948B1008802C0880F991FE9
:100840000A94E2F7842B88B9E9018F819885A985FC
:10085000BA8584879587A687B78783E090E09183E0
:100860008083138212828091680082608093680086
:1008700045C089017A016B015C01C130D105E1F409
:1008800082E090E091838083C9010E94EA02F8012E
:1008900087819085A185B285F50184879587A68794
:1008A000B78788B1008802C0CC0FDD1F0A94E2F739
:1008B000C095C823C8B922C0209719F1249721F503
:1008C000E9016E810E943F03EC01F501848195816D
:1008D000A681F60180839183A283F50187819085AB
:1008E000A185F70180839183A28381E090E0F501E7
:1008F00091838083C8010E94030308C0C4E0D0E054
:1009000005C0C5E0D0E002C0C2E0D0E0CE01DF917A
:10091000CF911F910F91FF90EF90DF90CF90BF90FC
:10092000AF900895CF93DF93FC01DB018281938127
:100930008130910521F1E0F0029709F046C086B1BF
:1009400090E0008802C0959587950A94E2F780FDB3
:1009500013C081ADEF01C80FD11D17969C91179759
:100960002485921B998B8F5F81AF883229F43FC019
:1009700081E090E09383828382E090E02BC0179621
:100980002C9117978485281B30E016968C9116972A
:1009900090E04BE450E0481B590B24173507C4F096
:1009A0008B5A9F4F821793079CF086B190E0008886
:1009B00002C0959587950A94E2F780FDDDCF82E02D
:1009C00090E09383828311AE05C083E090E002C083
:1009D00088E090E017964D915D916D917C911A970A
:1009E0004487558766877787DF91CF910895138273
:1009F000128284E090E091838083809168008D7FF3
:100A000080936800B9CFCF93DF9300D000D000D09F
:100A1000CDB7DEB780E88093610010926100579AED
:100A200087B1836087B90E94C40080E00E94F7000C
:100A3000789427E042E050E062E070E08EE191E0DF
:100A40000E94620265E08CE291E00E94AC03C12C3E
:100A5000D12C7601A12CBB24B39411E002E02EE14D
:100A600031E0AE014F5F5F4FBE016C5F7F4F8CE2A4
:100A700091E00E94DC0382309105E1F488B1802787
:100A800088B9BE016F5F7F4FCE0104960E94B50109
:100A9000A11016C088B1812788B98EE191E00E942B
:100AA000EA02C0902501D0902601E0902701F09045
:100AB000280106C0049799F288B18B2588B9CFCF59
:100AC0008091250190912601A0912701B0912801E4
:100AD0008C199D09AE09BF09813C964CAD42B10508
:100AE00078F38BB180588BB98EE191E00E940303BB
:100AF000C12CD12C7601AA24A394BB24B394AFCFEC
:100B0000AA1BBB1B51E107C0AA1FBB1FA617B70733
:100B100010F0A61BB70B881F991F5A95A9F780954F
:100B20009095BC01CD010895A1E21A2EAA1BBB1B12
:100B3000FD010DC0AA1FBB1FEE1FFF1FA217B307A9
:100B4000E407F50720F0A21BB30BE40BF50B661FBF
:100B5000771F881F991F1A9469F760957095809583
:100B600090959B01AC01BD01CF0108950E94C10584
:100B7000A59F900DB49F900DA49F800D911D1124F1
:100B80000895A29FB001B39FC001A39F700D811D66
:100B90001124911DB29F700D811D1124911D089586
:040BA000F894FFCFF7
:100BA400C0C62D000001E80340420F0054656D707B
:0E0BB40065722E0048756D69646974790000E1
:00000001FF
